:020000040800F2
:100000000804002001010008BB0F0008190E0008B9
:10001000B90F000849010008911000080000000015
:1000200000000000000000000000000013010008B4
:100030004B0100080000000017010008DD0F000858
:100040001B0100081B0100081B0100081B01000820
:100050001B0100081B0100081B0100081B01000810
:100060001B0100081B0100081B0100081B01000800
:100070001B0100081B0100081B0100081B010008F0
:100080001B0100081B0100081B0100081B010008E0
:100090001B0100081B0100081B0100081B010008D0
:1000A0001B0100081B0100081B0100081B010008C0
:1000B0001B0100081B0100081B0100081B010008B0
:1000C0001B0100081B0100081B0100081B010008A0
:1000D0001B0100081B0100081B0100081B01000890
:1000E0001B0100081B0100081B010008DFF80CD0F1
:1000F00000F018F800480047B1100008080400207C
:100100000648804706480047FEE7FEE7FEE7FEE7B1
:10011000FEE7FEE7FEE7FEE7FEE7FEE74910000820
:10012000ED000008064C074D06E0E06840F00103D2
:1001300094E8070098471034AC42F6D3FFF7DAFF93
:100140001C1100083C110008FEE7FEE731B500F085
:10015000F1F8044600F0EEF80099001B8842F9D34C
:1001600038BD00002DE9F84FDFF890A100220AF118
:10017000040B144601274FF00F090BF1040E00BFCA
:100180000B6807FA04F52B40AB4274D1DFF870C15D
:100190004E68A6EB0C0866452BD00DDC032E34D040
:1001A00005DC36B3012E19D0022E2FD11BE0112E03
:1001B00016D0122E2AD119E0B8F5881F19D006DC06
:1001C000B8F5803F15D0B8F5801F1FD111E0B8F504
:1001D000001F0ED0B8F5041F18D10AE0CA6815E058
:1001E000CA68121D12E0CA6808320FE0CA680C32F1
:1001F0000CE08A682AB1012A4FF0080203D0456159
:1002000004E0042202E0056100E00022FF2B01D897
:10021000064601E000F104064FEA840501D9A5F184
:100220002005D6F800C009FA05F82CEA080C02FAF5
:1002300005F54CEA050CC6F800C04D68ED0057D531
:10024000304DAE6946F00106AE61AD6924F003069B
:1002500005F0010500952C4D06EB050CDCF8085067
:10026000A6074FEA167809FA08F6B543274EB042BA
:1002700002D1002610E03BE0254EB04201D101261C
:100280000AE0244EB04201D1022605E0224EB042DF
:1002900001D1032600E0042606FA08F62E43CCF826
:1002A00008604D68DAF80060ED03554601D51E433D
:1002B00000E09E432E604D68DBF80060AD035D46B4
:1002C00001D51E4300E09E432E604D68DEF80060BD
:1002D000ED02754601D51E4300E09E432E604D6839
:1002E000AD020E4D2E6801D51E4300E09E432E60E8
:1002F000641C102CFFF444AFBDE8F88F00040140EB
:1003000000001110001002400000014000080140F0
:10031000000C014000100140001401400C04014099
:100320008068084000D0012070470AB10161704721
:100330000904FBE701480068704700000400002042
:1003400002480168491C0160704700000400002059
:10035000074810B5016841F010010160032000F06A
:1003600069F8002000F006F800F016F8002010BD33
:100370000020024010B5044600F0B2F94FF47A7143
:10038000B0FBF1F000F030FD00222146501E00F0DD
:1003900031F8002010BD0000154808B5816941F012
:1003A00001018161806900F001000090032000F0EC
:1003B00041F8002211466FF00B0000F01BF80022FC
:1003C00011466FF00A0000F015F8002211466FF098
:1003D000090000F00FF800221146101F00F00AF883
:1003E0000022BDE808401146501E00F003B800008E
:1003F00000100240F0B40E4B1B680C46C3F30223FE
:10040000C3F10705042D00D90425191D072901D2C0
:10041000002300E0DB1E012606FA05F1491E2140FB
:1004200099409E40761E16403143F0BC00F0C6BD98
:100430000CED00E0064900F0070208684FF6FF03E4
:10044000184040EA0220034A104308607047000049
:100450000CED00E00000FA052DE9F047DFF8789296
:1004600005460E46D9F80000022300F007070120D8
:1004700041044206994C41F28838B74271D2D9F80A
:1004800000C02CF0070C4CEA060CC9F800C0D9F8E3
:10049000007007F00707B7426FD12E78B60705D571
:1004A0006668AF6826F0F0063E4366602E78F60771
:1004B00056D06E68012E0BD0022E1ED093FAA3F1F7
:1004C000B1FA81F141F02001490924D0216823E0EB
:1004D00091FAA1F2B2FA82F242F02002520901D05E
:1004E000226800E0626A91FAA1F1B1FA81F101F0AB
:1004F0001F018840024240D017E092FAA2F1B1FAFF
:1005000081F141F02001490901D0216800E0616AD0
:1005100092FAA2F202E0616A93FAA3F2B2FA82F2CC
:1005200002F01F029040014227D0606820F00300D3
:1005300030436060FFF7FEFE06466868012809D078
:100540000228474613D01EE0FFF7F4FE801BB84296
:1005500001D992E047466068C0F381000128F3D1D9
:10056000A1E015E0FFF7E6FE801BB84273D8606893
:10057000C0F381000228F5D195E092E0FFF7DAFEA2
:10058000801BB84279D8606810F00C0FF6D18AE071
:100590002F78BF0707D56768D5F808C027F0F007A0
:1005A00047EA0C0767602F78FF076DD06F68012F4F
:1005B0000BD0022F1ED093FAA3F1B1FA81F141F0D2
:1005C0002001490924D0216823E091FAA1F2B2FA6E
:1005D00082F242F02002520901D0226800E0626AF1
:1005E00091FAA1F1B1FA81F101F01F0188400242B4
:1005F00057D017E092FAA2F1B1FA81F141F020014F
:10060000490901D0216800E0616A92FAA2F202E091
:10061000616A93FAA3F2B2FA82F202F01F029040EA
:1006200001423ED0606820F0030038436060FFF76D
:1006300081FE07466868012807D0022811D01FE014
:10064000FFF778FEC11B414517D86068C0F38100F1
:100650000128F5D118E010E0FFF76CFEC11B414501
:100660000BD86068C0F381000228F5D10CE000BF10
:10067000FFF760FEC11B414502D90320BDE8F087AA
:10068000606810F00C0FF3D1D9F8001021F00701C9
:100690003143C9F80010D9F8000000F00700B0425B
:1006A00001D00120EAE72878400705D56068E968AD
:1006B00020F4E060084360602878000706D5606891
:1006C000296920F4605040EAC10060600020FFF713
:1006D00051FE0020D2E7000000200240001002403E
:1006E00000B500F017F808494968F02292FAA2F222
:1006F00001F0F001B2FA82F2D140044A515CC840E4
:100700000349086000BD0000001002400C11000801
:100710000000002010B519A385B00FCB8DE80F00A5
:100720001AA01B4B006804905A681A4802F00C018A
:1007300004291DD008291BD14FF4701494FAA4F495
:1007400002F47011B4FA84F4E140D2031DF80110F0
:1007500010D55A684FF4003393FAA3F302F4003231
:10076000B3FA83F3DA4004AB9A5CB0FBF2F048438F
:1007700005B010BD08484843FAE70000020304052D
:10078000060708090A0B0C0D0E0F101001020000DD
:100790000010024000127A0000093D002DE9F84FD8
:1007A00005460078FA4EC0074FF0010425D0706866
:1007B0006704C0F38100012807D07068C0F381008E
:1007C00002281BD17068C00318D597FAA7F0B0FAB9
:1007D00080F040F02000400901D0306800E0706AED
:1007E00097FAA7F1B1FA81F101F01F0104FA01F1C2
:1007F000084202D06868002876D081E0306820F492
:1008000080303060306820F480203060FFF792FD47
:10081000804605E0FFF78EFDA0EB080064287CD839
:1008200097FAA7F0B0FA80F040F02000400901D01C
:10083000306800E0706A97FAA7F1B1FA81F101F02F
:100840001F0104FA01F10842E4D16868B0F5803F65
:100850000BD010B1B0F5A02F11D0306820F480304B
:100860003060306820F4802002E0306840F480304E
:100870003060686820B3FFF75DFD80460AE03068AD
:1008800040F480203060F0E7FFF754FDA0EB080053
:100890006428C4D897FAA7F0B0FA80F040F020009E
:1008A000400901D0306800E0706A97FAA7F1B1FA08
:1008B00081F101F01F0104FA01F10842E4D01FE0C8
:1008C000FFF738FD804605E0FFF734FDA0EB080098
:1008D0006428A4D897FAA7F0B0FA80F040F020007E
:1008E000400902D0306801E0B7E0706A97FAA7F1DA
:1008F000B1FA81F101F01F0104FA01F10842E3D1DC
:100900002878DFF8908280074FF000094FF0020747
:100910005AD5706810F00C0F00E07AE14FF0F80B38
:1009200007D07068C0F3810002281BD17068C00333
:1009300018D497FAA7F0B0FA80F040F020004009F0
:1009400001D0306800E0706A97FAA7F1B1FA81F13E
:1009500001F01F0104FA01F108422AD02869012898
:100960007BD126E0286980B394FAA4F0B0FA80F035
:1009700048F82040FFF7DEFC824605E0FFF7DAFC8E
:10098000A0EB0A00022884D897FAA7F0B0FA80F00A
:1009900040F02000400901D0306800E0706A97FA0A
:1009A000A7F1B1FA81F101F01F0104FA01F1084247
:1009B000E4D030689BFAABF26969B2FA82F220F0B7
:1009C000F80091400843306025E0FFE794FAA4F175
:1009D000B1FA81F148F82190FFF7ACFC824605E0BE
:1009E000FFF7A8FCA0EB0A000228CCD897FAA7F0E2
:1009F000B0FA80F040F02000400901D0306800E0FB
:100A0000706A97FAA7F1B1FA81F101F01F0104FAB7
:100A100001F10842E4D1287800076ED5A869B8B37F
:100A200094FAA4F0B0FA80F008EB8000C0F880449B
:100A3000FFF780FC824605E0FFF77CFCA0EB0A0094
:100A40000228A0D897FAA7F0B0FA80F040F0600032
:100A5000B4EB501F02D130680CE096E197FAA7F092
:100A6000B0FA80F040F06000B7EB501F01D1306A5F
:100A700000E0706A97FAA7F1B1FA81F101F01F0165
:100A800004FA01F21042D7D00120FFF75FFB34E0F7
:100A9000FFE794FAA4F1B1FA81F108EB8101C1F802
:100AA0008094FFF747FC824606E000BFFFF742FC58
:100AB000A0EB0A00022898D897FAA7F0B0FA80F0C5
:100AC00040F06000B4EB501F01D130680BE097FAA2
:100AD000A7F0B0FA80F040F06000B7EB501F01D1F2
:100AE000306A00E0706A97FAA7F1B1FA81F101F07B
:100AF0001F0104FA01F21042D8D12878400770D5BE
:100B0000F06940F08050F061F069DFF88CB000F0DF
:100B100080500090DBF8001041F48071CBF8001099
:100B2000FFF708FC824605E0FFF704FCA0EB0A0093
:100B300064286ED8DBF80000C005F5D5306A20F0D7
:100B400001003062306A20F004003062FFF7F2FBEF
:100B5000834641F2883A05E0FFF7ECFBA0EB0B017E
:100B6000514556D897FAA7F0B0FA80F040F040000F
:100B7000B4EB501F01D1306811E097FAA7F0B0FA3A
:100B800080F040F04000B7EB501F07D1306A06E01C
:100B9000001002400000424200700040706A97FA64
:100BA000A7F1B1FA81F101F01F0104FA01F1084245
:100BB000D2D1E86801280AD008B1052812D0306ADD
:100BC00020F001003062306A20F0040002E0306A58
:100BD00040F001003062E86898B3FFF7ABFB834652
:100BE0000CE05AE0306A40F004003062EFE700BFEA
:100BF000FFF7A0FBA0EB0B0151450AD897FAA7F02D
:100C0000B0FA80F040F04000B4EB501F02D13068E1
:100C10000CE09DE097FAA7F0B0FA80F040F04000B9
:100C2000B7EB501F01D1306A00E0706A97FAA7F164
:100C3000B1FA81F101F01F0204FA02F10842D7D0A3
:100C40002BE0FFE7FFF776FB834605E0FFF772FB3B
:100C5000A0EB0B0151457BD897FAA7F0B0FA80F0D2
:100C600040F04000B4EB501F01D130680BE097FA20
:100C7000A7F0B0FA80F040F04000B7EB501F01D170
:100C8000306A00E0706A97FAA7F1B1FA81F101F0D9
:100C90001F0204FA02F10842D8D1E86980B37168F2
:100CA000C1F38101022970D04FF080714F000228FA
:100CB000484609D091FAA1F1B1FA81F148F8210032
:100CC000FFF738FB054669E0894691FAA1F1B1FAD0
:100CD00081F1C24648F82100FFF72CFB804605E071
:100CE000FFF728FBA0EB0800022854D897FAA7F0DA
:100CF000B0FA80F040F02000400902D0306801E0F6
:100D000061E0706A97FAA7F1B1FA81F101F01F0171
:100D100004FA01F10842E3D1286AB0F5803F05D119
:100D20007068A96820F4003008437060D5E90801B4
:100D30000843716821F474110843706099FAA9F0AE
:100D4000B0FA80F04AF82040FFF7F4FA054606E0D2
:100D500021E000BFFFF7EEFA401B02281BD897FAEC
:100D6000A7F0B0FA80F040F02000400901D03068D0
:100D700000E0706A97FAA7F1B1FA81F101F01F0162
:100D800004FA01F10842E5D01DE01EE0FFF7D2FAB7
:100D9000401B022802D90320BDE8F88F97FAA7F07C
:100DA000B0FA80F040F02000400901D0306800E047
:100DB000706A97FAA7F1B1FA81F101F01F0104FA04
:100DC00001F10842E2D10020E6E70120E4E74FF01C
:100DD000E0210428086903D020F00400086170476E
:100DE00040F00400FAE7704710B5401EB0F1807F74
:100DF00001D3012010BD4FF0E02460610F21601786
:100E000000F0DCF80020A06107202061002010BD68
:100E100010B5FFF7E8FF10BDFEE7000070B50E4DFE
:100E20004FF4005421462846FFF77AFA012808D1EA
:100E30000A20FFF78BF921462846FFF771FA0128AF
:100E400001D0002070BD21462846FFF769FA01282D
:100E5000F9D0012070BD00000010014070B50E4DAA
:100E60004FF4804421462846FFF75AFA012808D15A
:100E70000A20FFF76BF921462846FFF751FA0128AF
:100E800001D0002070BD21462846FFF749FA01280D
:100E9000F9D0012070BD00000010014070B50E4D6A
:100EA0004FF4004421462846FFF73AFA012808D1BA
:100EB0000A20FFF74BF921462846FFF731FA0128AF
:100EC00001D0002070BD21462846FFF729FA0128ED
:100ED000F9D0012070BD00000010014070B51A4823
:100EE00086B0816941F010018161816901F01001D2
:100EF0000491816941F010018161816901F0100163
:100F00000491816941F0100181618069002400F041
:100F1000100004904FF4005002258DE831000B4E74
:100F200069463046FFF71EF968038DE831006946CF
:100F30003046FFF717F9A8038DE8310069463046BF
:100F4000FFF710F906B070BD00100240001001401C
:100F500070B5174886B0816941F0040181618169EB
:100F600001F004010491816941F00401816180690B
:100F7000104E00F004000490002201213046FFF7DB
:100F8000D4F9002202213046FFF7CFF901240225CF
:100F900000946946304603950194FFF7E3F8CDE9E4
:100FA0000054694630460395FFF7DCF806B070BD83
:100FB0000010024000080140FEE770470907090ED3
:100FC000002806DA00F00F0000F1E02080F8141D80
:100FD000704700F1E02080F80014704710B5FFF76B
:100FE000AFF9BDE81040FFF713BF30B58FB0012057
:100FF000009000040024CDE901040225CDE907504A
:101000004FF4E01009906846FFF7C8FB0F20CDE9C8
:101010000A056802CDE90C4002210AA80E94FFF7E8
:101020001BFAFFF75DFB4FF47A71B0FBF1F0FFF7AD
:10103000DBFE0420FFF7CBFE00221146501EFFF717
:10104000D9F90FB030BD00000D48016841F0010131
:10105000016041680B4A1140416001680A4A114031
:101060000160016821F480210160416821F4FE01E2
:1010700041604FF41F0181600449C003086070475C
:10108000001002400000FFF8FFFFF6FE08ED00E050
:10109000FEE702E008C8121F08C1002AFAD1704713
:1010A0007047002001E001C1121F002AFBD17047E8
:1010B000FFF74EF9FFF799FFFFF74AFFFFF70EFF23
:1010C000114C00BFFFF7AAFE012804D101221146EE
:1010D0002046FFF72AF9FFF7C1FE012804D10122BB
:1010E00002212046FFF721F9FFF7D8FE0128E9D1B8
:1010F000002201212046FFF718F900220221204694
:10110000FFF713F9DEE700000008014000000000CF
:101110000102030401020304060708093C11000848
:101120000000002008000000921000084411000890
:101130000800002000040000A210000800A24A04D9
:0411400000000000AB
:04000005080000ED02
:00000001FF
