:020000040800F2
:10000000602700200101000807280008BD2400081F
:1000100005280008030D0008872D000800000000D7
:1000200000000000000000000000000013010008B4
:100030002F0D00080000000017010008012B000828
:100040001B0100081B0100081B0100081B01000820
:100050001B0100081B0100081B0100081B01000810
:100060001B0100081B0100081B0100081B01000800
:100070001B0100081B0100081B0100081B010008F0
:10008000050D00081B0100081B0100081B010008EA
:100090001B0100081B0100081B0100081B010008D0
:1000A0001B0100081B0100081B0100081B010008C0
:1000B0001B0100081B0100081B0100081B010008B0
:1000C0001B0100081B0100081B0100081B010008A0
:1000D0001B0100081B0100081B0100081B01000890
:1000E0001B0100081B0100081B010008DFF80CD0F1
:1000F00000F0CCFB00480047D937000860270020FB
:100100000648804706480047FEE7FEE7FEE7FEE7B1
:10011000FEE7FEE7FEE7FEE7FEE7FEE76D2B0008E1
:10012000ED000008202A04DB203A21FA02F0002129
:10013000704721FA02F3D040C2F1200291400843F7
:100140001946704700487047F44D000810B5044642
:10015000FFF7F8FF0068005D00F0010010BD40EA05
:1001600001039B0703D009E008C9121F08C0042A35
:10017000FAD203E011F8013B00F8013B521EF9D21C
:100180007047D2B201E000F8012B491EFBD2704744
:100190000022F6E710B513460A4604461946FFF753
:1001A000F0FF204610BD421C10F8011B0029FBD1B6
:1001B000801A7047CBB203E00178994203D0401C0B
:1001C000521EF9D20020704730B504460020034685
:1001D00000E05B1C934203D2E05CCD5C401BF8D096
:1001E00030BD2DE9F04791460F4680460446002673
:1001F00014F8015B2DB1FFF7A5FF0068405DC00753
:10020000F6D12B2D02D02D2D18D0641E4A4639462A
:10021000204600F027FA27B13968A14201D1C7F87A
:10022000008071054FF002040BD54042002803DD29
:1002300002F0E0FD0460A007BDE8F08746F48066A8
:10024000E4E70028F8DA02F0D5FD04606FF0004022
:10025000F2E72DE9FE4F804681EA0300C00F0C460D
:10026000009021F0004123F00045B8EB0200A941C5
:1002700005D24046214690461C460B46024623F0D6
:100280000040104347D0270DC7F30A00C3F30A51BB
:100290000290401A019040286BDAC3F3130040F437
:1002A000801B0098924620B10023D2EB030A63EB37
:1002B0000B0B01985946C0F14002504600F0B1F9CD
:1002C00006460D4650465946019A00F0B9F910EB22
:1002D00008006141002487EA115284EAE7731A4357
:1002E00040D0009A62B3019A012A4FEA075215DC06
:1002F000001B61EB02014FF0004202EA0752CDE918
:100300000042001C41F5801132462B4600F057FA9E
:1003100003B0BDE8F08F40462146F9E7001B61EBD2
:100320000201001C41F5801300185B412018A2F562
:10033000001747EB030140EAD570B6196D4111E093
:100340006D084FEA360645EAC0754FEA0752001BB2
:1003500061EB0201001C41F5801149084FEA3000B1
:100360000019514132462B4603B0BDE8F04F00F072
:1003700017BA0098012240000023D0EB020263EB81
:10038000E073009821464FEAE074B8EB000061EB9F
:100390000401E9E783F000435BE781F0004158E79F
:1003A0002DE9FE4F81EA030404F0004421F00041EE
:1003B00000944FF0000B23F0004350EA01045ED09C
:1003C00052EA03045BD0C3F30A54C1F30A552C4428
:1003D000A4F2F3340194A0FB0254C1F3130141F4DD
:1003E0008011C3F3130343F4801301FB024400FBA9
:1003F000034E840A970A44EA815447EA8357A4FBD0
:10040000076802958D0A05FB07854FEA932C04FBCC
:100410000C542705029D4FEA065847EA1637B5EBFC
:1004200008056EEB070C870E920E47EA811742EA29
:100430008312A7FB0201B6EB0B0164EB00042B0D4A
:1004400043EA0C335E1844EB1C50DA465146E7FB96
:100450000201C5F313044FEA0B3343EA14534FEA86
:100460000432019C43EA0603A4F10C040294009CAC
:10047000CDE900B400F0A3F903B0BDE8F08F00208F
:100480000146F9E72DE9F04D81EA030404F0004B41
:1004900021F0004514464FF0000A23F0004150EAD5
:1004A000050220D054EA01021DD0C5F30A570246C6
:1004B000C5F31303C1F31300C1F30A5640F48015CA
:1004C00043F48013A7EB0608101BD64608F2FD384C
:1004D00073EB050002D308F1010801E092185B41BB
:1004E000B8F1000F03DA00200146BDE8F08D0020CE
:1004F0004FF48011064684460EE0171B73EB050788
:1005000005D3121B63EB050306434CEA010C4908B3
:100510004FEA300092185B4150EA0107EDD152EAF0
:10052000030012D082EA040083EA0501084305D0E3
:10053000101BAB4106D20122002306E000224FF03F
:10054000004302E06FF0010253101AEB06004CEB7F
:10055000085110EB0A0041EB0B01BDE8F04D00F033
:100560001FB9000030B5041E71F1000404DB4FF028
:100570000044404264EB0101141E73F1000405DBEA
:100580001C464FF00043524263EB0403994208BFFC
:10059000904230BD30B50B46014600202022012498
:1005A00009E021FA02F59D4205D303FA02F5491B41
:1005B00004FA02F52844151EA2F10102F1DC30BD57
:1005C0002DE9F05F0546002092469B468846064688
:1005D000814640241BE02846414647462246FFF715
:1005E000A1FD53465A46C01A914110D311461846F0
:1005F000224600F016F82D1A67EB01084F462246F6
:100600000120002100F00DF817EB00094E41201EDB
:10061000A4F10104DFDC484631462A464346BDE8E2
:10062000F09F202A04DB203A00FA02F100207047F4
:100630009140C2F1200320FA03F319439040704720
:10064000202A06DBCB17203A41FA02F043EAE07396
:1006500006E041FA02F3D040C2F120029140084383
:10066000194670472DE9F05F82460078002715464D
:100670008B460AF10104B946302801D09DB113E040
:1006800014F8010B0127782803D0582801D045B170
:100690000AE00DB1102D07D10027102514F8010B29
:1006A00002E0082500E00A250026B0460EE005FB22
:1006B000080005FB06F1012701EB10461FFA80F840
:1006C000B6F5803F00D3B94614F8010B294600F077
:1006D000EFF80028EBDABBF1000F05D00FB1641E74
:1006E00000E05446CBF80040B9F1000F06D002F00C
:1006F00081FB02210160C81EBDE8F09F48EA064068
:10070000FAE700000FB4002300B589B00CA90091EE
:100710000B996FF00042CB601E4B06931E4B079364
:100720000423CDE901321D4A089202466B4600209F
:1007300000F04CF909B05DF814FB70B586B00646C0
:100740004FF0FF300091CDE90101002015460C4625
:1007500004903246694604A8FFF7D4FF0346049884
:10076000211825B108B10A4600E022462A60002877
:100770000DD0002B02DD0098884208D0081B0094A1
:10078000CDE901043246694604A8FFF7BBFF06B075
:1007900070BD0000050C0008230C00084D01000886
:1007A00010B5141E73F1000408DA401C41F1000179
:1007B00092185B411A4301D120F0010010BD2DE9D0
:1007C000F04D92469B4611B1B1FA81F202E0B0FAC7
:1007D00080F220329046FFF724FF04460F4640EA9D
:1007E0000A0041EA0B0153465A46084313D011460A
:1007F00053EA010019D0C8F140025046FFF792FCBD
:1008000005460E46504659464246FFF70AFF084342
:1008100005D0012004E020463946BDE8F08D0020D7
:10082000054346EAE0762C4337430A986305E40A19
:10083000A0EB08000022FD0A44EA47540A3002D522
:1008400000200146E9E7010510196941DDE9084585
:1008500000196941BDE8F04DA2E7C1F30A52C1F3A6
:10086000130140F2FF3341F480119A4202DA002072
:100870000146704740F233439A42A2F2334202DC0F
:100880005242FFF74FBCFFF7CCBE0000064C074DAD
:1008900006E0E06840F0010394E807009847103450
:1008A000AC42F6D3FFF726FC644E0008844E0008E5
:1008B0003A2800D2303820F02002412A01D3A2F198
:1008C0003700884201D34FF0FF3070472DE9FF4FCA
:1008D000087881B09946FF2805D0491C2D2804D0FE
:1008E0000024002308E000230BE00124F9E703EBD8
:1008F000830300EB4303491C0878FF28F7D104B1B8
:100900005B4200200090147801462D2C01D02B2C46
:1009100004D1521C2D2C12D00024009400251678EE
:10092000FF2E0ED00A24A0FB04C801FB048100277F
:1009300000FB0711521C16EB0C006941EFE7012484
:10094000EBE7994450EA01020ED00024AA4D264656
:10095000DFF8A88200F076F982468B46B9F10000F4
:1009600009DAC9F100071BE001980021C0E9001174
:1009700005B0BDE8F08F074612E0F80707D0224621
:100980002B4630464146FFF70BFD06468846224679
:100990002B4610461946FFF703FD04460D467F100F
:1009A000002FEAD1B9F1000F32464346504659466E
:1009B00002DAFFF767FD01E0FFF7F2FC009A0AB1E7
:1009C00081F00041019AC2E90001D1E72DE9FF4F12
:1009D0001F468DB0D7E901464FF0FF382E2045461F
:1009E0004FF000090B90B9696D1C0E988847396A61
:1009F000824688470028F6D1BAF1FF3F0AD024F496
:100A0000D064002E11DDBAF12B0F08D0BAF12D0FF2
:100A10000BD102E0404611B0ABE744F48064B96901
:100A20006D1C0E9888478246761E6946600501D582
:100A30002D2000E02B208DF8000001F1010B0DF1BD
:100A4000200809E0B9696D1C0E98884782460F9806
:100A500044F40074761E0560002E02DDBAF1300FFA
:100A6000F0D00B998A453ED144F0800406E00F99FE
:100A7000681CA9F1010944F400740860B9696D1C8F
:100A8000761E0E98884782463028F0D02BE00B99CE
:100A90008A4505D1200603D444F08004761E18E070
:100AA000504602F06DFA08B30DF11301761E44F4BE
:100AB00000748B4508D2AAF130000BF8010B200618
:100AC00007D5A9F1010003E0200602D409F10100D5
:100AD0008146A00502D50F99681C0860B9696D1C94
:100AE0000E9888478246002ED1DC53E0002E51DD5F
:100AF000BAF1650F02D0BAF1450F4BD1A00549D527
:100B0000B9696D1C24F44074761E0E98884782469D
:100B1000002E0CDD2B2804D0BAF12D0F07D144F4A0
:100B20008074B9696D1C0E9888478246761EE00570
:100B300001D52D2100E02B2108F8011BCDF82C80D8
:100B400021E00DF12901761E44F4007488450CD291
:100B5000AAF1300010F0FF0088F8000002D10B99D4
:100B6000884509D908F1010806E0E00501D52448C7
:100B700001E042F20F708146B9696D1C0E988847FA
:100B800082460F980560002E04DD504602F0F8F909
:100B90000028D6D1F9690E988847FF208BF800000D
:100BA00088F800000020069007904B466A4608A986
:100BB00006A8FFF78BFEA00502D46FF001002AE71C
:100BC00014F0240F0AD0E00714D1DDE906123868CA
:100BD000031D3B600068C0E900120BE0DDE906017F
:100BE00000F03CF80146E00704D13868021D3A6085
:100BF0000068016028460EE7000024400000F03F36
:100C0000F1D8FFFF426842B1016811F8013B23B1FE
:100C1000521EC0E90012184670470121C160881EAB
:100C2000704742685AB1C368016843B983688B4210
:100C300005D0491E521CC0E90012002070474FF039
:100C4000FF3070470EB540F2334202920022CDE9E8
:100C500000221346FFF7B3FD03B000BD01F00043CF
:100C600030B421F0004150EA010206D00A0DA2F58D
:100C70006072C1F31301002A02DC30BC002070470F
:100C8000440F44EAC104C100E01830BC00EBC2507C
:100C9000AFF300800029A8BF7047401C490008BF7F
:100CA00020F00100704710B4B0FA80FC00FA0CF09C
:100CB00050EA010404BF10BC704749B1CCF12004D4
:100CC00021FA04F411FA0CF118BF01212143084361
:100CD000A3EB0C01CB1D4FEA00614FEA102042BF8D
:100CE000002010BC704700EBC35010440029A4BF83
:100CF00010BC7047401C490008BF20F0010010BC28
:100D00007047FEE7014800F0DFB800002807002028
:100D100010B5046863604368102B036803D09960C2
:100D20000068C26010BD9A600068C16010BDFEE737
:100D30002DE9F0470F46002A77D00C2A75D8D0E964
:100D4000031CD0E90145D0F814900668E24693B33D
:100D50008818182801D280466FE0A0F11808012CED
:100D600016D0032C14D0052C12D0072C10D0082C30
:100D70000ED00A2C0CD0042C0DD0062C0BD0092C34
:100D800009D00B2C07D0022C0AD00C2C14D054E024
:100D90001F2D13D301E01E2D10D30125641C4CE040
:100DA0001D2D05D01C2D09D1F0B201F088FC28B909
:100DB0000125032441E007E01F2D01D26D1C3CE01A
:100DC00001252C46761C38E09142A1EB0200C2D2EC
:100DD00000F11808022C16D0042C14D0062C12D0C6
:100DE000082C10D0092C0ED00B2C0CD0052C0ED0BA
:100DF000072C0CD00A2C0AD00C2C08D0032C0BD0BA
:100E0000012C13D019E0012D12D81F2502E0012D6D
:100E10000ED81E25641E10E0012D09D1F0B201F09C
:100E20004EFC28B91C25022407E00CE0012D01D955
:100E30006D1E02E01F250C24761E381DC7F8149085
:100E40003E6080E83005BDE8F087000030B51A4804
:100E500085B0816941F0040181618069174C00F01F
:100E600004000490042000900220019003200390CD
:100E70006946204600F0BEF900250820CDE90005AE
:100E800069462046029500F0B5F90E4C0C48C4E9BD
:100E900000058020C4E9025020202561C4E90550E6
:100EA0000002E061204600F045F9A4F140004463EF
:100EB000606205B030BD0000001002400008014033
:100EC0006C000240280700202DE9F05FDFF8608207
:100ED0000446D8F80020DFF858B2954D944E944F50
:100EE0000068DFF84C92DFF848A20BF1080B1C35C4
:100EF000303644374FF400614FF4004C4FF4002E6D
:100F000009F158090AF16C0A584501D1082316E085
:100F1000A84201D1802312E0B04201D10B460EE07D
:100F2000B84201D163460AE0484501D1734606E064
:100F3000504502D14FF4000301E04FF000631A4224
:100F400031D00268D24312072DD4026822F0080281
:100F500002602068584501D1082114E0A84201D15F
:100F6000802110E0B0420ED0B84201D161460AE0C3
:100F7000484501D1714606E0504502D14FF40001C9
:100F800001E04FF00061C8F80410606B40F0010010
:100F90006063042084F82100002084F82000216B85
:100FA00009B1204688476248D0F800C04FF48061FC
:100FB00020680A010B044FF4802E584502D14FF0EF
:100FC000040816E0A84202D14FF0400811E0B042F8
:100FD00001D188460DE0B84201D1904609E048456C
:100FE00001D1F04605E0504502D14FF4800800E001
:100FF00098461CEA080F33D0D0F800C06FEA0C0CFA
:101000005FEA4C7C2CD4D0F800C05FEA8C6C05D42D
:10101000D0F800C02CF0040CC0F800C0206858457F
:1010200001D1042113E0A84201D140210FE0B042D8
:101030000DD0B84201D1114609E0484501D17146B1
:1010400005E0504502D14FF4800100E019463848D0
:101050004160112084F82100E16A09B120468847E7
:10106000334AD2F800C05B46206851154FF4005B4C
:101070004FF4003E984202D14FF0020817E0A84218
:1010800002D14FF0200812E0B04201D188460EE0B4
:10109000B84201D1D8460AE0484501D1F04606E001
:1010A000504502D14FF4001801E04FF000781CEADF
:1010B000080F3BD0D0F800C06FEA0C0C5FEA8C7CC4
:1010C00034D4D0F800C05FEA8C6C05D4D0F800C0EE
:1010D0002CF0020CC0F800C02068984201D1022117
:1010E00014E0A84201D1202110E0B0420ED0B84255
:1010F00001D159460AE0484501D1714606E0504504
:1011000002D14FF4001101E04FF000715160606BAB
:101110006063012084F82100002084F82000A16A87
:10112000002903D02046BDE8F05F0847BDE8F09FE6
:101130000000024070B520B190F82110002411B1D8
:1011400003E0012070BD80F82040022180F82110CA
:1011500003681A6843F6F0718A43D0E90115294300
:10116000D0E9035635432943456929438569294315
:10117000C5692943114319604463012180F8211096
:10118000002070BD70B5044690F82000012823D0DF
:10119000012084F82000022084F8210020680568DE
:1011A00025F0010505602046FFF7B2FD20680168C3
:1011B00041F0020101602068016841F00401016012
:1011C0002068016841F0080101602068016841F071
:1011D00001010160002070BD022070BD31B500F03A
:1011E000E7F8044600F0E4F80099001B8842F9D3C0
:1011F00038BD00002DE9F84FDFF890A100220AF178
:10120000040B144601274FF00F090BF1040E00BF29
:101210000B6807FA04F52B40AB4274D1DFF870C1BC
:101220004E68A6EB0C0866452BD00DDC032E34D09F
:1012300005DC36B3012E19D0022E2FD11BE0112E62
:1012400016D0122E2AD119E0B8F5881F19D006DC65
:10125000B8F5803F15D0B8F5801F1FD111E0B8F563
:10126000001F0ED0B8F5041F18D10AE0CA6815E0B7
:10127000CA68121D12E0CA6808320FE0CA680C3250
:101280000CE08A682AB1012A4FF0080203D04561B8
:1012900004E0042202E0056100E00022FF2B01D8F7
:1012A000064601E000F104064FEA840501D9A5F1E4
:1012B0002005D6F800C009FA05F82CEA080C02FA55
:1012C00005F54CEA050CC6F800C04D68ED0057D591
:1012D000304DAE6946F00106AE61AD6924F00306FB
:1012E00005F0010500952C4D06EB050CDCF80850C7
:1012F000A6074FEA167809FA08F6B543274EB0421A
:1013000002D1002610E03BE0254EB04201D101267B
:101310000AE0244EB04201D1022605E0224EB0423E
:1013200001D1032600E0042606FA08F62E43CCF885
:1013300008604D68DAF80060ED03554601D51E439C
:1013400000E09E432E604D68DBF80060AD035D4613
:1013500001D51E4300E09E432E604D68DEF800601C
:10136000ED02754601D51E4300E09E432E604D6898
:10137000AD020E4D2E6801D51E4300E09E432E6047
:10138000641C102CFFF444AFBDE8F88F000401404A
:101390000000111000100240000001400008014050
:1013A000000C014000100140001401400C040140F9
:1013B00001480068704700000400002070B5040078
:1013C00004D094F83500002510B106E0012070BD6E
:1013D00084F83450204600F099F9242084F8350030
:1013E0002068016821F00101016000F0A7FB0146BF
:1013F00028482268B1FBF0F05060274A63689342A6
:1014000006D94FF4967358434FF47A73B0FBF3F058
:101410002368401C18626068904208D84000B1FB05
:10142000F0F0C0F30B01042916D2042014E0A268E6
:1014300052B100EBC00202EB0010B1FBF0F040F43F
:101440004040010507D007E000EB4000B1FBF0F0A1
:1014500040F40040F5E701202168C861D4E90701A4
:10146000084321680860D4E90310084321688860B4
:10147000D4E9050108432168C8602068016841F08B
:1014800001010160A563202084F8350084F83650FE
:10149000002070BD40420F00A08601002DE9FF4FE3
:1014A000044690F8350081B099468B4601252028E6
:1014B00073D142F2107301224849204601F04EF8E0
:1014C00000286AD194F83400012866D0012084F8FD
:1014D00034002068016821F400610160242084F850
:1014E00035000026A66320272068016841F480713A
:1014F00001604B4600224FF00111204601F02EF80A
:1015000000285CD121680BF0FE000861FFF750FF56
:101510002168804648694969C0F3400094F8352045
:10152000C1F380214FF0A00A14E000BFB9F1000F11
:1015300005D0FFF73DFFA0EB0801494501D984F82C
:1015400035A0216848694969C0F3400094F8352006
:10155000C1F38021084301D1A02AE7D184F8357076
:1015600020684169C943890718D4016841F40071B2
:101570000160206841698069009042F21073012285
:101580001649204600F0EAFFC8B984F8357084F89F
:101590003460002005B0BDE8F08F1DE0016841F423
:1015A000007101602068416921F48061416142F26B
:1015B000107301220949204600F0D0FF08B1032032
:1015C000E8E7284603996D1C88428DD384F835706E
:1015D00084F834600120DDE70220DBE70200100020
:1015E0002DE9F843044690F83500DDF820801D46CB
:1015F0001746894620287BD1002F7AD0002D7ED037
:1016000042F2107301224049204600F0A7FF002853
:1016100077D194F83400012873D0012084F8340085
:101620002068016821F400610160212084F8350000
:10163000102084F836000026A6634246494620461C
:1016400000F052FF28B1A06B84F83460042856D013
:101650000BE020684169806900904146204601F016
:1016600006F828B1A06B042844D00320BDE8F88315
:10167000216817F8010B086120686D1EADB2416941
:10168000C943490705D435B117F8011B01616D1E27
:10169000ADB2002DE1D14546FFF78AFE80462027F6
:1016A00016E0204600F00BFF0028DBD1681C0FD0AD
:1016B0002DB1FFF77DFEA0EB0800A84208D9A06B72
:1016C00040F02001A16384F8357084F83460C9E7E4
:1016D00020684069C0434007E3D42068016841F4B2
:1016E0000071016084F8357084F834600020BDE733
:1016F00007E004E02068016841F400710160012006
:10170000B4E70220B2E700000200100000B5006854
:101710000C4985B0884212D1C0200090122001905F
:101720000320039069460848FFF764FD0748C16934
:1017300041F40011C161C06900F40010049005B0CB
:1017400000BD000000540040000C014000100240A9
:1017500002480168491C0160704700000400002035
:10176000074810B5016841F010010160032000F046
:1017700075F8002000F006F800F016F8002010BD03
:101780000020024010B5044600F0BEF94FF47A7113
:10179000B0FBF1F000F068FD00222146501E00F081
:1017A0003DF8002010BD0000154808B5816941F0E2
:1017B00001018161806900F001000090052000F0C6
:1017C0004DF8002211466FF00B0000F027F80022C0
:1017D00011466FF00A0000F021F8002211466FF068
:1017E000090000F01BF800221146101F00F016F847
:1017F0000022BDE808401146501E00F00FB800005E
:101800000010024000F01F020121914040098000B9
:1018100000F1E020C0F8001170470000F0B40E4B5A
:101820001B680C46C3F30223C3F10705042D00D93E
:101830000425191D072901D2002300E0DB1E012623
:1018400006FA05F1491E214099409E40761E164039
:101850003143F0BC00F0D8BF0CED00E0064900F0C9
:10186000070208684FF6FF03184040EA0220034AC7
:1018700010430860704700000CED00E00000FA051E
:101880002DE9F047DFF8789205460E46D9F80000BA
:10189000022300F00707012041044206994C41F25F
:1018A0008838B74271D2D9F800C02CF0070C4CEA46
:1018B000060CC9F800C0D9F8007007F00707B74256
:1018C0006FD12E78B60705D56668AF6826F0F006AA
:1018D0003E4366602E78F60756D06E68012E0BD018
:1018E000022E1ED093FAA3F1B1FA81F141F020014A
:1018F000490924D0216823E091FAA1F2B2FA82F2D8
:1019000042F02002520901D0226800E0626A91FA96
:10191000A1F1B1FA81F101F01F018840024240D0EB
:1019200017E092FAA2F1B1FA81F141F020014909E0
:1019300001D0216800E0616A92FAA2F202E0616AD5
:1019400093FAA3F2B2FA82F202F01F02904001422F
:1019500027D0606820F0030030436060FFF728FD67
:1019600006466868012809D00228474613D01EE0C1
:10197000FFF71EFD801BB84201D992E04746606820
:10198000C0F381000128F3D1A1E015E0FFF710FDBD
:10199000801BB84273D86068C0F381000228F5D17B
:1019A00095E092E0FFF704FD801BB84279D86068AB
:1019B00010F00C0FF6D18AE02F78BF0707D56768C3
:1019C000D5F808C027F0F00747EA0C0767602F78C2
:1019D000FF076DD06F68012F0BD0022F1ED093FA36
:1019E000A3F1B1FA81F141F02001490924D0216825
:1019F00023E091FAA1F2B2FA82F242F020025209F7
:101A000001D0226800E0626A91FAA1F1B1FA81F195
:101A100001F01F018840024257D017E092FAA2F16C
:101A2000B1FA81F141F02001490901D0216800E0BB
:101A3000616A92FAA2F202E0616A93FAA3F2B2FA40
:101A400082F202F01F02904001423ED0606820F016
:101A5000030038436060FFF7ABFC07466868012865
:101A600007D0022811D01FE0FFF7A2FCC11B41459F
:101A700017D86068C0F381000128F5D118E010E0A4
:101A8000FFF796FCC11B41450BD86068C0F381008D
:101A90000228F5D10CE000BFFFF78AFCC11B4145CD
:101AA00002D90320BDE8F087606810F00C0FF3D175
:101AB000D9F8001021F007013143C9F80010D9F816
:101AC000000000F00700B04201D00120EAE72878CA
:101AD000400705D56068E96820F4E060084360606D
:101AE0002878000706D56068296920F4605040EA2C
:101AF000C10060600020FFF745FE0020D2E7000033
:101B0000002002400010024000B500F043F80849F0
:101B10004968F02292FAA2F201F0F001B2FA82F2E0
:101B2000D140044A515CC8400349086000BD000030
:101B300000100240F64500080000002000B5FFF745
:101B4000E3FF074949684FF4E06292FAA2F201F418
:101B5000E061B2FA82F2D140024A515CC84000BD55
:101B600000100240F645000800B5FFF7CDFF074919
:101B700049684FF4605292FAA2F201F46051B2FA4D
:101B800082F2D140024A515CC84000BD00100240C0
:101B9000F645000810B519A385B00FCB8DE80F00EE
:101BA0001AA01B4B006804905A681A4802F00C01F6
:101BB00004291DD008291BD14FF4701494FAA4F401
:101BC00002F47011B4FA84F4E140D2031DF801105C
:101BD00010D55A684FF4003393FAA3F302F400329D
:101BE000B3FA83F3DA4004AB9A5CB0FBF2F04843FB
:101BF00005B010BD08484843FAE700000203040599
:101C0000060708090A0B0C0D0E0F10100102000048
:101C10000010024000127A0000093D002DE9F84F43
:101C200005460078FA4EC0074FF0010425D07068D1
:101C30006704C0F38100012807D07068C0F38100F9
:101C400002281BD17068C00318D597FAA7F0B0FA24
:101C500080F040F02000400901D0306800E0706A58
:101C600097FAA7F1B1FA81F101F01F0104FA01F12D
:101C7000084202D06868002876D081E0306820F4FD
:101C800080303060306820F480203060FFF790FBB7
:101C9000804605E0FFF78CFBA0EB080064287CD8A9
:101CA00097FAA7F0B0FA80F040F02000400901D088
:101CB000306800E0706A97FAA7F1B1FA81F101F09B
:101CC0001F0104FA01F10842E4D16868B0F5803FD1
:101CD0000BD010B1B0F5A02F11D0306820F48030B7
:101CE0003060306820F4802002E0306840F48030BA
:101CF0003060686820B3FFF75BFB80460AE030681D
:101D000040F480203060F0E7FFF752FBA0EB0800C2
:101D10006428C4D897FAA7F0B0FA80F040F0200009
:101D2000400901D0306800E0706A97FAA7F1B1FA73
:101D300081F101F01F0104FA01F10842E4D01FE033
:101D4000FFF736FB804605E0FFF732FBA0EB08000B
:101D50006428A4D897FAA7F0B0FA80F040F02000E9
:101D6000400902D0306801E0B7E0706A97FAA7F145
:101D7000B1FA81F101F01F0104FA01F10842E3D147
:101D80002878DFF8908280074FF000094FF00207B3
:101D90005AD5706810F00C0F00E07AE14FF0F80BA4
:101DA00007D07068C0F3810002281BD17068C0039F
:101DB00018D497FAA7F0B0FA80F040F0200040095C
:101DC00001D0306800E0706A97FAA7F1B1FA81F1AA
:101DD00001F01F0104FA01F108422AD02869012804
:101DE0007BD126E0286980B394FAA4F0B0FA80F0A1
:101DF00048F82040FFF7DCFA824605E0FFF7D8FA02
:101E0000A0EB0A00022884D897FAA7F0B0FA80F075
:101E100040F02000400901D0306800E0706A97FA75
:101E2000A7F1B1FA81F101F01F0104FA01F10842B2
:101E3000E4D030689BFAABF26969B2FA82F220F022
:101E4000F80091400843306025E0FFE794FAA4F1E0
:101E5000B1FA81F148F82190FFF7AAFA824605E02D
:101E6000FFF7A6FAA0EB0A000228CCD897FAA7F051
:101E7000B0FA80F040F02000400901D0306800E066
:101E8000706A97FAA7F1B1FA81F101F01F0104FA23
:101E900001F10842E4D1287800076ED5A869B8B3EB
:101EA00094FAA4F0B0FA80F008EB8000C0F8804407
:101EB000FFF77EFA824605E0FFF77AFAA0EB0A0008
:101EC0000228A0D897FAA7F0B0FA80F040F060009E
:101ED000B4EB501F02D130680CE096E197FAA7F0FE
:101EE000B0FA80F040F06000B7EB501F01D1306ACB
:101EF00000E0706A97FAA7F1B1FA81F101F01F01D1
:101F000004FA01F21042D7D00120FFF767F934E05C
:101F1000FFE794FAA4F1B1FA81F108EB8101C1F86D
:101F20008094FFF745FA824606E000BFFFF740FACB
:101F3000A0EB0A00022898D897FAA7F0B0FA80F030
:101F400040F06000B4EB501F01D130680BE097FA0D
:101F5000A7F0B0FA80F040F06000B7EB501F01D15D
:101F6000306A00E0706A97FAA7F1B1FA81F101F0E6
:101F70001F0104FA01F21042D8D12878400770D529
:101F8000F06940F08050F061F069DFF88CB000F04B
:101F900080500090DBF8001041F48071CBF8001005
:101FA000FFF706FA824605E0FFF702FAA0EB0A0007
:101FB00064286ED8DBF80000C005F5D5306A20F043
:101FC00001003062306A20F004003062FFF7F0F95F
:101FD000834641F2883A05E0FFF7EAF9A0EB0B01EE
:101FE000514556D897FAA7F0B0FA80F040F040007B
:101FF000B4EB501F01D1306811E097FAA7F0B0FAA6
:1020000080F040F04000B7EB501F07D1306A06E087
:10201000001002400000424200700040706A97FACF
:10202000A7F1B1FA81F101F01F0104FA01F10842B0
:10203000D2D1E86801280AD008B1052812D0306A48
:1020400020F001003062306A20F0040002E0306AC3
:1020500040F001003062E86898B3FFF7A9F98346C1
:102060000CE05AE0306A40F004003062EFE700BF55
:10207000FFF79EF9A0EB0B0151450AD897FAA7F09C
:10208000B0FA80F040F04000B4EB501F02D130684D
:102090000CE09DE097FAA7F0B0FA80F040F0400025
:1020A000B7EB501F01D1306A00E0706A97FAA7F1D0
:1020B000B1FA81F101F01F0204FA02F10842D7D00F
:1020C0002BE0FFE7FFF774F9834605E0FFF770F9AF
:1020D000A0EB0B0151457BD897FAA7F0B0FA80F03E
:1020E00040F04000B4EB501F01D130680BE097FA8C
:1020F000A7F0B0FA80F040F04000B7EB501F01D1DC
:10210000306A00E0706A97FAA7F1B1FA81F101F044
:102110001F0204FA02F10842D8D1E86980B371685D
:10212000C1F38101022970D04FF080714F00022865
:10213000484609D091FAA1F1B1FA81F148F821009D
:10214000FFF736F9054669E0894691FAA1F1B1FA3F
:1021500081F1C24648F82100FFF72AF9804605E0E0
:10216000FFF726F9A0EB0800022854D897FAA7F049
:10217000B0FA80F040F02000400902D0306801E061
:1021800061E0706A97FAA7F1B1FA81F101F01F01DD
:1021900004FA01F10842E3D1286AB0F5803F05D185
:1021A0007068A96820F4003008437060D5E9080120
:1021B0000843716821F474110843706099FAA9F01A
:1021C000B0FA80F04AF82040FFF7F2F8054606E042
:1021D00021E000BFFFF7ECF8401B02281BD897FA5C
:1021E000A7F0B0FA80F040F02000400901D030683C
:1021F00000E0706A97FAA7F1B1FA81F101F01F01CE
:1022000004FA01F10842E5D01DE01EE0FFF7D0F826
:10221000401B022802D90320BDE8F88F97FAA7F0E7
:10222000B0FA80F040F02000400901D0306800E0B2
:10223000706A97FAA7F1B1FA81F101F01F0104FA6F
:1022400001F10842E2D10020E6E70120E4E74FF087
:10225000E0210428086903D020F0040008617047D9
:1022600040F00400FAE7704710B5401EB0F1807FDF
:1022700001D3012010BD4FF0E02460610F216017F1
:1022800000F0C2FA0020A06107202061002010BDEC
:1022900010B5FFF7E8FF10BD704770B5040004D01B
:1022A00094F83900002510B106E0012070BD84F8D3
:1022B0003850204600F020F8022084F839002068C9
:1022C000C16821F40051C160204600F0A3FC2068E1
:1022D000016921F4904101612068416921F02A01DE
:1022E00041612068C16841F40051C160E56301208B
:1022F00084F83900002070BD10B50068114986B01F
:1023000088421DD11048816941F480418161806912
:102310000E4C00F4804004904FF4007000900220B6
:1023200001900320039069462046FEF763FF0021D9
:102330002015CDE90001029169462046FEF75AFFBB
:1023400006B010BD003801400010024000080140F6
:1023500070B5044690F83900012801D0122832D116
:1023600069B362B394F8380001282CD0012084F8B6
:102370003800A162A2850025E56394F8390012288F
:102380001FD0222084F83900636B10489862636B79
:102390000F48D862636B0F48186308461346666B94
:1023A000216802463046091DFEF7ECFE20684169AF
:1023B00041F04001416184F83850002070BD012097
:1023C00070BD3220DEE7022070BD0000D52B000872
:1023D0000B2C0008B52B000801490120087070473C
:1023E00008000020014901204870704708000020C3
:1023F0002DE9F047044690F8390099460D4601282A
:1024000001D0222858D12DB322B394F838000128E6
:1024100052D0012684F838600027E76394F8390029
:1024200022281AD05FF0120084F83900A284E284D6
:102430004FF48058E08C4B46401EE084A0684FF07B
:10244000000240454FF08001204613D100F052FCBD
:1024500008BB04E00120BDE8F0873220E4E72888CB
:102460002168C0F308004860206908B16D1C08E0CD
:10247000AD1C06E000F03EFC68B9216815F8010BC0
:102480004860E08C0028D5D14B46002240212046F0
:1024900000F030FC08B10320DDE794F83900322861
:1024A00006D084F8396000BF84F838700020D2E785
:1024B000222084F83900F7E70220CCE7FEE7016824
:1024C0004A69D24352050DD44A6922F480624A61B6
:1024D00004218163202180F83510002180F8341018
:1024E000012070470020704770B5044600680D4613
:1024F0001646016841F480710160134600224FF0D6
:102500000111204600F02AF898B92069B0F5804FF3
:1025100011D00620216800EAD51040F0F0000861D3
:1025200032460D49204600F05EF838B1A06B042811
:1025300010D0032070BD05F0FE0000E0E8B2216875
:10254000086105493246891F204600F04CF80028F2
:10255000ECD170BD012070BD080001002DE9F05FD5
:102560001E4690460C460546FEF722FF81464FF078
:10257000000A4FF0200BC4F30747B8F1000F09D051
:1025800024E0701C06D0D6B1FEF712FFA0EB0900C4
:10259000B04214D82868012F06D0806924EA0000D0
:1025A0000004000C1BD0ECE74069F7E7701C0DD06D
:1025B0002EB1FEF7FDFEA0EB0900B04206D985F86A
:1025C00035B085F834A00320BDE8F09F2868012FBE
:1025D00007D0806924EA00000004000CE6D0002047
:1025E000F2E74069F6E72DE9F04791460D460446CB
:1025F000FEF7DEFE824600274FF02008C5F30746AF
:1026000029E020684069C043400512D42068016871
:1026100041F4007101602068416921F480614161E9
:102620000420A06384F8358084F834700120BDE86C
:10263000F087B9F1FF3F0ED0B9F1000F05D0FEF7DA
:10264000B7FEA0EB0A01494505D984F8358084F826
:1026500034700320EBE72068012E06D0806925EA5C
:1026600000000004000CE2D0CBE74069F7E770B54A
:102670000D460446FEF79CFE064619E02046FFF78D
:102680001EFF08B1012070BD681C11D025B1FEF7F6
:102690008FFE801BA8420BD954F8380F40F0200061
:1026A00044F804092020607000202070032070BDD1
:1026B00020684069C0430006E0D4002070BD00F5EA
:1026C000FA61800701D0002070474FF4C870B1FB59
:1026D000F0F200FB121030B16420B1FBF0F200FB0D
:1026E00012100028F0D00120704700000D4882B081
:1026F000816941F00401816180690B4900F00400A7
:1027000000900A4801604FF4E1314160002181608E
:102710000C22C160C0E904128161C16102B0FFF7FF
:10272000BCBD00000010024000380140A806002097
:102730000D4808B5816941F020018161816901F08E
:1027400020010091816941F004018161816901F0FA
:1027500004010091816941F008018161806900F004
:102760000800009008BD0000001002400948084918
:102770004FF4804201600849416000218160C0E956
:10278000031241618161C1610162FEF717BE000061
:10279000005400404C020020801A0600164808B57C
:1027A000C16941F40031C161C16901F40031009196
:1027B000416941F0010141614069104900F00100A7
:1027C00000900F48042201604FF41651416000212F
:1027D0008160C160C0E904128161C161FFF75DFDE4
:1027E000FEF734FB012211461020FFF717F8BDE871
:1027F00008401020FFF706B80010024000440040D7
:10280000E8060020FEE770470907090E002806DAEF
:1028100000F00F0000F1E02080F8141D704700F177
:10282000E02080F80014704770B5842815D2402944
:1028300013D20C4B012401F00705AC401E79C908E6
:10284000094B01EB411100EB81000EB132B101E007
:10285000012A03D0195CA143195470BD195C2143AE
:10286000FAE70000140000208802002028B1FF22AF
:102870004FF484610248FDF784BC0022F8E70000B1
:1028800088020020014A1080518070471400002007
:1028900010B501F067FE44F620630122782151480B
:1028A000FEF7FCFD08B1002010BD40F6C210401E2E
:1028B000FDD1AE220021782001F05AFE2022002115
:1028C000782001F055FE10220021782001F050FE02
:1028D000B0220021782001F04BFEC8220021782090
:1028E00001F046FE00221146782001F041FE102240
:1028F0000021782001F03CFE40220021782001F0E8
:1029000037FE81220021782001F032FEFF220021D3
:10291000782001F02DFEA1220021782001F028FE70
:10292000A6220021782001F023FEA8220021782091
:1029300001F01EFE3F220021782001F019FEA422A2
:102940000021782001F014FED3220021782001F02C
:102950000FFE00221146782001F00AFED522002148
:10296000782001F005FEF0220021782001F000FE21
:10297000D9220021782001F0FBFD222200217820BD
:1029800001F0F6FDDA220021782001F0F1FD12229B
:102990000021782001F0ECFDDB220021782001F0FD
:1029A000E7FD20220021782001F0E2FD8D220021A8
:1029B000782001F0DDFD14220021782001F0D8FDFF
:1029C000AF220021782001F0D3FD0020FFF74EFF59
:1029D00000F070F80448002101804180012141711C
:1029E000084610BD4C020020140000202DE9F047DD
:1029F000814625480D46924601882A78114484294B
:102A000005D28046408869780844402802D30020D7
:102A1000BDE8F08700262AE0A9F1200101FB006053
:102A20006A68002432F810701DE000BF07FA04F055
:102A3000000409D5B8F80210B8F800003144204469
:102A400089B280B252460BE0BAF1000F1AD00022D0
:102A5000B8F80210B8F800003144204489B280B2BE
:102A6000FFF7E2FE641C2878A042DFD8761C687865
:102A7000B042D1D8B8F800102A7848461144A8F8D6
:102A80000010C5E70122E3E71400002070B51546E9
:102A90000E46044609E02A463146FFF7A7FF217893
:102AA000884201D0C8B270BD641C20780028F2D1E1
:102AB000C0B270BD70B5114D002400BF04F1B0006C
:102AC000C2B20021782001F053FD00221146782087
:102AD00001F04EFD10220021782001F049FD04EBA9
:102AE000441005EB800284234021782001F050FD42
:102AF000641CE4B2082CE1D370BD00008802002001
:102B000010B5FEF725FEBDE81040FFF7C1BB30B59C
:102B10008FB00120009000040024CDE901040225BB
:102B2000CDE907504FF4E01009906846FFF776F8BA
:102B30000F20CDE90A056802CDE90C4002210AA860
:102B40000E94FEF79DFEFEF7DFFF4FF47A71B0FBA7
:102B5000F1F0FFF789FB0420FFF779FB0022114613
:102B6000501EFEF75BFE0FB030BD00000D4801683F
:102B700041F00101016041680B4A11404160016868
:102B80000A4A11400160016821F480210160416816
:102B900021F4FE0141604FF41F0181600449C0032C
:102BA00008607047001002400000FFF8FFFFF6FECB
:102BB00008ED00E010B5406A0021C185C184012103
:102BC00080F83910C16B41F01001C163FFF764FB5D
:102BD00010BD000010B50146406A09680968890601
:102BE0000ED40021C18501684A6922F040024A6181
:102BF00090F83910322906D05FF0010180F83910C1
:102C0000FFF7EAFB10BD1221F8E710B5406AFFF7A5
:102C1000E9FB10BD2DE9F041044600680169E26856
:102C200021F44051114301612169A06808436169A1
:102C300008432168CA6841F20C639A430243CA60A0
:102C400020684169A26921F440711143416128491A
:102C5000206864254FF03208884218D1FEF784FFBF
:102C600000EBC00101EB001061688900B0FBF1F0DE
:102C7000B0FBF5F6FEF778FF00EBC00101EB0010AA
:102C800061688900B0FBF1F7FEF76EFF17E0FEF711
:102C900055FF00EBC00101EB001061688900B0FB3B
:102CA000F1F0B0FBF5F6FEF749FF00EBC00101EBD8
:102CB000001061688900B0FBF1F7FEF73FFF00EB01
:102CC000C00101EB001061688900B0FBF1F0B0FBBE
:102CD000F5F06FF01801484307EB800108EB011095
:102CE000B0FBF5F0216866F31F108860BDE8F08145
:102CF000003801402DE9F0471D4690460E46044637
:102D0000FEF756FB07465FEA08004FF000094FF058
:102D1000010808D030E0681C05D095B1FEF748FBEB
:102D2000C01BA8420DD82068006836EA0000F2D126
:102D300027E0681C20D025B1FEF73AFBC01BA84253
:102D40001AD92068C16821F08001C1602068C1687B
:102D500021F02001C1602068C16821F48071C16048
:102D60002068416921F00101416184F8398084F8CB
:102D700038900320BDE8F0872068006836EA00003C
:102D8000D7D00020F6E7FEE70FB4054B10B503A936
:102D9000044A029800F044F910BC5DF814FB0000EE
:102DA000713700083C0000200FB4084B10B504A98F
:102DB00002AA039800F034F9044602A9002000F0AA
:102DC000D1FC204610BC5DF814FB000065370008FC
:102DD0007CB5491E1C461546CDE90001044B6A46E8
:102DE0002146284600F01CF9009A002111707CBD94
:102DF0004F370008004870474800002002E008C82C
:102E0000121F08C1002AFAD170477047002001E064
:102E100001C1121F002AFBD1704700002DE9FF5F9E
:102E2000DDE90220010DDDF838B0024318D044F688
:102E30001050A1F2FF3141430D140F98012820D00A
:102E4000A5EB0B00401C5FEA000A4FF00004474E60
:102E5000DFF81C91A046504616D5CAF1000728E0BD
:102E60000F98012443A2012808D0002100980F9B4D
:102E7000C0E90021C0E90243BDE8FF9F6FEA0B01F2
:102E8000F4E7CBF10000DEE7074612E0F80707D0D1
:102E90002246334640464946FDF782FA8046894637
:102EA0002246334610461946FDF77AFA04460E4686
:102EB0007F10002FEAD1DDE90201BAF1000F42468E
:102EC0004B4602DAFDF76CFA01E0FDF7DBFA044647
:102ED0000E460022284BFDF745FB03D84FF0FF308C
:102EE000014607E00022254B20463146FDF7B1F9A7
:102EF000FDF7B3FC102409E0002C0ADB0A220023B2
:102F0000FDF75EFB019B30321A55641E50EA010248
:102F1000F2D1641C019AC4F1110314440F9A012ADE
:102F200003D0012208430DD10AE0084304D0002059
:102F30004FF0110B0F9080E7A3EB0B056D1E0DE01A
:102F40005B4504DD4FF0000205F1010504E003DA02
:102F50004FF00002A5F10105002AECD000980F996E
:102F6000C0E90231C0E9004586E7000000002440C6
:102F70000000F03F300000000000F0430000E03FA0
:102F800030380A2801D20120704700207047000025
:102F90003EB502F114052C1F231F062909D008296C
:102FA0000FD009290DD00A290BD00DA000F0DCFDAF
:102FB00010E014A2CDE9004501F0E4F903280CD09B
:102FC00008E018320094CDE9015211A201F0DAF9BB
:102FD000042802D04FF0FF303EBD00203EBD00006F
:102FE0005061727365206F662074696D652065722B
:102FF000726F722028666F726D6174206572726FD5
:1030000072292100253264253264253264000000D3
:103010002532642532642532642E256400000000C8
:103020002DE9FF4F95B09B468946064600250FE2E5
:10303000252877D100242746F84A0121059400E08D
:10304000044316F8013F203B01FA03F01042F7D188
:1030500030782A2811D06FF02F033078A0F1300299
:10306000092A16D8059A44F0020402EB820203EB07
:1030700042021044761C0590EFE759F8042B0592A4
:10308000002A03DA504244F40054059044F002044C
:10309000761C30782E2816D116F8010F44F004045F
:1030A0002A280DD06FF02F023078A0F13003092BC1
:1030B00009D807EB870302EB4303C718761CF3E735
:1030C00059F8047B761C30786C280FD006DC4C282D
:1030D00017D068280DD06A2814D104E0742810D0C5
:1030E0007A280FD10DE044F400140AE044F480146F
:1030F00001E044F440147278824202D104F5801455
:10310000761C761C307866280BD013DC582877D0D4
:1031100009DC002875D04528F6D04628F4D0472889
:103120001AD19DE118E0632835D0642879D065284C
:1031300012D195E1702873D008DC6728F1D0692896
:103140006FD06E280DD06F2806D1B5E073282CD033
:10315000752875D0782874D05A46179990476D1CF9
:1031600075E1C4F30250022809D003280DD0D9F824
:10317000001004280DD00D6009F1040967E1D9F8A9
:103180000010EA17C1E90052F6E7D9F800100D80E7
:10319000F2E70D70F0E719F8041B8DF8001000201D
:1031A0008DF80100EA46012003E059F804AB4FF026
:1031B000FF3061074FF0000102D40DE008F101017A
:1031C0008846B9420FDA8045F8DB1AF80810002962
:1031D000F4D108E008F1010188468142FADB1AF8CF
:1031E00008100029F6D105985B46A0EB0807214698
:1031F0003846179A00F094FA284400EB080507E0D7
:103200004DE029E10DE01AF8010B5A461799904755
:10321000B8F10108F7D25B4621463846179A13E108
:1032200042E00A220092C4F302524FF0000A022A3E
:1032300008D059F804CB032A4FEAEC710AD00DE00C
:1032400029E02AE009F1070121F00702F2E802C1B2
:10325000914609E00FFA8CFC4FEAEC71042A03D185
:103260004FFA8CFC4FEAEC71002907DA0A4600217C
:10327000DCF1000C61EB02012D2202E0220504D5F5
:103280002B228DF80420012203E0E20701D0202246
:10329000F7E7904659E00A2102E010220DE01021E4
:1032A0004FF0000A00910BE010224FF0000A44F0AA
:1032B00004040827009203E008224FF0000A00925D
:1032C000C4F30252022A05D059F804CB0021032A84
:1032D00008D009E009F1070121F00702F2E802C174
:1032E000914605E01FFA8CFC042A01D10CF0FF0C7A
:1032F0004FF00008220728D5702806D0009B83F0E5
:10330000100353EA0A0305D00EE040228DF8042092
:10331000012208E05CEA010206D030228DF8042088
:103320008DF8050002229046009B83F0080353EAC3
:103330000A030AD15CEA010201D1620705D53022F5
:103340008DF804204FF001087F1E582804D034A0C7
:1033500003900EA802900DE036A0F9E753466046B0
:10336000009AFDF72DF984460398825C0298401E6E
:10337000029002705CEA0100F0D1029806A9081AD6
:1033800000F1200A600702D524F4803400E0012710
:10339000574502DDA7EB0A0000E0002000EB0A0120
:1033A000009005984144401A0590E00306D45B461E
:1033B0002146179A059800F0B3F90544002706E066
:1033C00001A85A46C05D179990476D1C7F1C474560
:1033D000F6DBE0030CD55B462146179A059800F012
:1033E0009FF9054404E030205A46179990476D1C18
:1033F0000099481E00900029F5DC08E00298029927
:103400005A460078491C0291179990476D1CBAF1F1
:103410000001AAF1010AF1DC65E1000009280100C0
:10342000303132333435363738396162636465663A
:1034300000000000303132333435363738394142FC
:10344000434445460000000000F058F90544761C4E
:10345000307800287FF4ECAD19B02846BDE8F08F35
:10346000620700D4062709F1070222F0070CFCE8E6
:103470000223E14603F000485FEA080C02D00FF295
:10348000702C0DE05FEA045C02D50FF2682C07E0B7
:103490005FEAC47C02D00FF2602C01E0AFF2700C46
:1034A0004FF0FF3823F00043CDF850C065280CD012
:1034B00006DC452809D046281DD047283DD13DE0EF
:1034C000662818D067287ED138E00021112F01DB53
:1034D000112000E0781CCDE9000106A90EA8FFF735
:1034E0009DFCDDE90F010E9A03910021009207F186
:1034F000010A04914DE04FF000400097CDE9011022
:1035000006A90EA8FFF78AFCDDE90F0203920E9BC5
:1035100011990022DDF80CA00093049211B9791CD6
:1035200000EB010AB7EB0A0004D4C0F1FF3007F149
:10353000010A0490AAEB0700019044E0012F00DA91
:1035400001270021112F01DD112000E03846CDE9CF
:10355000000106A90EA8FFF761FCDDE90F010E9A34
:103560000391002104910092BA4621070CD40399DB
:10357000514500DA8A46BAF1010F05DD009AAAF139
:103580000101515C302908D0B84202DA10F1040F71
:1035900006DA0121CDE9011015E0AAF10101E9E700
:1035A000002805DC049901440491AAEB000102E023
:1035B000411C514500DD8A460499401A401C019087
:1035C0004FF000400290200704D40198504501DBE1
:1035D000CDF8048000208DF84F0002980DF14F07C0
:1035E000B0F1004F25D02B200E9002984FF002082A
:1035F00000280CDA404202902D200E9007E00A21AC
:103600000298FCF7C7FF3031029007F8011DB8F1AE
:103610000001A8F10108F2DC02980028EFD1791E20
:103620000E980870307800F0200040F0450007F850
:10363000020D12A8C01B00F107081498007800B111
:10364000012000EB0A01019801EBE071059841446B
:10365000401A401E0590E00306D45B462146179AA7
:10366000059800F05DF805441498007818B15A46A2
:10367000179990476D1CE00324D55B462146179AA5
:10368000059800F04DF805441CE00498002807DB7D
:10369000DDE90301884203DD0098405C179901E0F1
:1036A000179930205A469047049805F10105401CAF
:1036B00004900198401E019004D12E205A4617997B
:1036C00090476D1CBAF10001AAF1010ADDDC05E0AA
:1036D00017F8010B5A46179990476D1CB8F1000175
:1036E000A8F10108F4DC5B462146179A0598ABE681
:1036F0002D0000002B000000200000002DE9F0410B
:10370000044600251E461746880404D405E03946C1
:103710002020B0476D1C641EF9D52846BDE8F08115
:103720002DE9F041044600251E469046C80301D508
:10373000302700E02027880404D505E041463846BC
:10374000B0476D1C641EF9D52846BDE8F0814A6873
:10375000002A06D00A68531C0B6010704868401E8F
:10376000486070470A68531C0B60107070477047C0
:1037700013B54FF6FF73012269460248FEF738FE83
:1037800000981CBDA806002010B5002821D0114BC0
:103790000022001F196803E0814203D80A464968E5
:1037A0000029F9D152B11368841A9C4204D10068EF
:1037B00018441060104602E0506000E0186039B113
:1037C00002680B1A934203D10B681A4402604968DD
:1037D000416010BD40000020FDF7C2FFFFF797F9E0
:1037E000FEF7A6FFFEF7C2FFFEF780FFFEF7D6FF4B
:1037F00003A0FFF7C9FAFFF74BF800F05DF9FEE709
:103800002A2A2A2A2A2A20D3B2CAAF475053C4A34D
:10381000BFE9B2E2CAD4CAB5D1E9202A2A2A2A2AA3
:103820002A0A0000F0B50B30154D20F007010024E6
:10383000144A0FE003688B420BD38B4205D95E1A02
:1038400043184768C3E9006700E04368136002C09B
:1038500004E0021D10680028ECD12046002802D1A7
:10386000286808B10020F0BD064A07481060074AE2
:10387000121A22F00702C0E9002401202860D7E7CD
:103880004400002040000020640700206017002052
:10389000C2680A6102694A6142698A618269CA61D1
:1038A000C26B0A62D0E91223C1E90C23D0E91423C8
:1038B000C1E9142390F828204E2AD0E9082301D02A
:1038C00083F00043C1E9102390F83820452AD0E95D
:1038D0000C2001D080F00040C1E91220086840F0BF
:1038E000010008607047F0B542684A62D0E90E23D3
:1038F000C1E90A23D0E91023C1E90C23D0E912233E
:103900000024C1E90E2323460126002200EB830593
:103910000DE0AF6857B102EB820C01EB8C0CDCF8C8
:1039200078E0774502D1641CCCF87C60521C4F6F64
:103930009742EEDC5B1C0C2BE7DB0C67086840F061
:1039400002000860F0BD70B5D0E900329A4230DC68
:103950000C23B3EB820F2CDB012A01DA0122426037
:1039600082684A674268846893001A1F9C4202DAA0
:10397000A51A002217E00425002243689B001B1FA4
:103980009C1802EB820300EB830304EB840401EB3D
:103990008404DE6844F8786F5E69A6609E69E6601C
:1039A000DB69521C2361AA42E7DB086840F004008F
:1039B000086070BD70B50546007F0C46412802D0F6
:1039C000562832D007E0216A022001B92062616ADC
:1039D000012900D160621C222946201DFCF7BFFB93
:1039E00095F828004E28D5E9080101D081F0004162
:1039F000C4E9100195F838004528D5E90C0101D03B
:103A000081F00041C4E91201D5E91001094A0A4BCD
:103A1000FCF7C6FCC4E91601D5E91201C4E9180196
:103A2000206840F00800206070BD00202062012066
:103A3000D0E700006F1283C0CAA1FD3FD0E9002388
:103A4000C1E91823D0E90423C1E91A23D0E90C20E5
:103A5000C1E91620086840F010000860704710B5F2
:103A600003460C460020C2B00146FF2C0BDC224668
:103A700019466846FCF773FB00200DF8040040A9C6
:103A8000684600F0A9FD42B010BD30B50C460146B5
:103A90000020C1B01546FF2C0BDC22466846FCF71F
:103AA0005EFB00200DF804002A4640A96846FCF79A
:103AB00098FB41B030BD0000E8B000F05FFC224947
:103AC000016000F05BFC21494160684600F03CFD6C
:103AD0005AA800F02FFB4FF400721D491D48FEF755
:103AE00037FC1D4C00254FF48076607838B16B466A
:103AF000324617495AA800F0C1F8657009E02078ED
:103B00000028F2D06B46324614495AA800F0B6F8A5
:103B10002570012308225FA901A8FDF709F90020FB
:103B2000649FFEF7A3FE3A460DA166A8FFF73CF995
:103B300034210A20FEF7A6FE01220A4966A8FEF7F4
:103B4000A5FFFEF7B7FFD0E7F54500086F3700087F
:103B50004C000020E8060020080000204C01002056
:103B6000256400000C0000200FB40C4810B5446818
:103B7000ADF5806D002C0CD00DF20C4340F2FF31FE
:103B80006846DDF80824FFF723F9011E01DD6846C9
:103B9000A0470DF5806D10BC5DF814FB1C000020E3
:103BA0002DE9F0478846044600EB080700204FF057
:103BB000FF3916460546C2F8009008E0217824290E
:103BC0000FD02A2910D000B14D40401C641CBC42CB
:103BD000F4D33168002902DA002C00D00020BDE8BF
:103BE000F0870028FBD1F0E7611DB942F1D8E178F8
:103BF0000D29EED121790A29EBD110220221601C76
:103C0000FFF743FF01463A1B3060A8EB0200401D5E
:103C1000A942DED0C6F80090E1E7000070B5054685
:103C200005291DDB144C05222168FCF7CDFAC8B12B
:103C3000052228466168FCF7C7FAA8B10522284684
:103C4000A168FCF7C1FA88B105222846E168FCF7B3
:103C5000BBFA68B1052228462169FCF7B5FA48B1DC
:103C6000002070BD012070BD022070BD042070BD19
:103C7000082070BD102070BD28000020F8B5002479
:103C80001D460646009400F08EFA28E0641C0428C5
:103C900014D004DC012807D002281DD109E008282F
:103CA00011D0102818D113E029460098FFF7F0FD35
:103CB00012E029460098FFF716FE0DE0294600980D
:103CC000FFF741FE08E029460098FFF773FE03E086
:103CD00029460098FFF7B2FE0098FFF755FD6946A8
:103CE000304600F04FFA0028D0D12046F8BD000041
:103CF00070B50D460646CEB0144680211046FCF73E
:103D000047FA2946304600F015FC0DF1240C04F169
:103D1000780304F1700204F1680104F160008CE89A
:103D20000F000DF1140C203B203A203920388CE88C
:103D30000F00031F0DF1040C183A183918388CE8DD
:103D40000F00083800900DAB0CA22946304600F059
:103D500019FB0E2801D016A009E00DA8FCF723FAE4
:103D6000014622460DA8FFF713F928B115A0FFF769
:103D7000FBFE00204EB070BD0120FBE724475047FA
:103D800047412C25732C25662C25432C25662C2594
:103D9000432C25642C25642C25662C25662C254374
:103DA0002C25662C25432C25662C25642A00000032
:103DB0004750474741207061727365206572726F8A
:103DC0007221000047504747412074696D6520709B
:103DD00061727365206572726F72210070B50D4655
:103DE000064690B0144650211046FCF7D1F92946FA
:103DF000304600F09FFB04F138010DF1300C04F166
:103E0000480304F14002081F8CE80F00031F0DF166
:103E1000200C143A103910388CE80F00031F0DF1F4
:103E2000100C103A103910388CE80F00031F103AAC
:103E30001039201D8DE80F00234607A22946304681
:103E400000F0A0FA112805D012A0FFF78DFE002087
:103E500010B070BD0120FBE72447504753412C258B
:103E6000432C25642C25642C25642C25642C256486
:103E70002C25642C25642C25642C25642C25642C8D
:103E800025642C25642C25642C25662C25662C2580
:103E9000662A0000475047534120706172736520C5
:103EA0006572726F7221000070B50D46064692B0C1
:103EB00014465C211046FCF76BF92946304600F0A9
:103EC00039FB04F158031A1F0DF1380C111F04F1CE
:103ED00048008CE80F00031F0DF1280C143A143928
:103EE00014388CE80F00031F0DF1180C143A143924
:103EF00014388CE80F00031F0DF1080C143A143924
:103F000014388CE80F00011F201DCDE90001234665
:103F10000E4A2946304600F035FA6168A3688900E8
:103F20000A1F8B4201DA991A00E00421032202EBF6
:103F30008101884201DB132805DD05A0FFF714FE8F
:103F4000002012B070BD0120FBE70000F84D000812
:103F50004750475356207061727365206572726FC7
:103F60007221000070B50D460646CEB014466021A1
:103F70001046FCF70DF92946304600F0DBFA04F153
:103F80005900411ECDE90B1004F15002CDE9094260
:103F9000201D011DCDE9071004F14803103ACDE9B9
:103FA0000523183A029234302831CDE90310283B1A
:103FB0001C38CDE900030DAB11A22946304600F0B4
:103FC000E1F90D2803D00E2801D01AA009E00DA8B0
:103FD000FCF7E9F8014622460DA8FEF7D9FF28B103
:103FE00019A0FFF7C1FD00204EB070BD20685A280F
:103FF00001DA643020606068401E60600120F3E7F1
:10400000244750524D432C25732C25432C25662CD8
:1040100025432C25662C25432C25662C25662C252E
:1040200032642532642532642C25662C25432C25E8
:10403000432A00004750524D43207061727365203F
:104040006572726F722100004750524D43207469AF
:104050006D65207061727365206572726F722100E8
:1040600070B50D46064688B0144640211046FCF750
:104070008FF82946304600F05DFA0DF10C0C04F182
:10408000380304F1300204F1280104F120008CE827
:104090000F00183A183918388DE8070023460FA288
:1040A0002946304600F06EF9082801D013A00EE032
:1040B000207A54280AD1207E4D2807D194F8280070
:1040C0004E2803D194F838004B2805D010A0FFF7F4
:1040D0004BFD002008B070BD0120FBE7244750567F
:1040E00054472C25662C25432C25662C25432C254E
:1040F000662C25432C25662C25432A004750565410
:1041000047207061727365206572726F72210000C2
:104110004750565447207061727365206572726F04
:10412000722028666F726D6174206572726F7229D9
:104130002100000070B50646002500F01FF98468D4
:10414000FF2C01DC4FF4807414213046FCF720F87A
:104150002046FFF767FBB06018B10125F4602846E0
:1041600070BD02A0FFF700FDF9E70000496E73750E
:104170006666696369656E74206D656D6F7279211D
:104180000000000010B502460068002448B14368F2
:104190000B6004688168116009B900215160FFF764
:1041A000F3FA204610BD2DE9F04114468846074633
:1041B0000026FD68A54200DB25462A4641463846D2
:1041C00000F006F80644641BF3D13046BDE8F081E8
:1041D0002DE9F8430446174600690025E268384493
:1041E0002E46904200DB26612269A06810443A46C0
:1041F000FBF7B5FF206938442061411BA0686A467F
:104200002844FFF7CDFC07001ED00098002847DBAC
:104210002069A268411B681C1044491EFFF7FEFC80
:1042200081460C20FFF7FEFA5FEA000876D0484688
:10423000C8F80460B9F1040F4ED010DC012814D086
:10424000B9F1020F29D12CE035B12069421B22615E
:10425000A0684119FBF783FF2846BDE8F8830828CA
:104260004BD0B9F1100F18D159E08020FFF7DAFADE
:104270004146C8F80400021E6AD00121C8F80010A7
:10428000A06839462844FFF733FD1AE0D8F8040047
:1042900018B1FFF779FAC8F804604046FFF774FADE
:1042A00053E05020FFF7BEFA4146C8F80400021E52
:1042B0004ED00221C8F80010A06839462844FFF704
:1042C0008DFD0028E2D0606808B1C0F80880C4F80D
:1042D00004802068A0B336E05C20FFF7A3FA4146D3
:1042E000C8F80400021E33D00421C8F80010A068EA
:1042F00039462844FFF7D8FDE3E76020FFF792FA3C
:104300004146C8F80400021E22D00821C8F8001057
:10431000A06839462844FFF725FED2E71BE040207D
:10432000FFF780FA4146C8F80400021E10D01021A1
:10433000C8F80010A06839462844FFF791FEC0E78E
:10434000FFE7C4F80080C8F808603D44206954E7DE
:104350000846FFF719FA03A0FFF706FC4FF0FF30FD
:104360007BE70000496E73756666696369656E7404
:10437000206D656D6F727921000000000048704764
:104380001C0000200FB42DE9F84F044645184FF0EB
:1043900000090DA84FF00108CA46CB460090B2E0D4
:1043A0004046B8F1010F07D002280FD0032812D0E1
:1043B000B8F1040F06D11DE0252F04D014F8010B2D
:1043C000B8422BD19CE04FF0020899E04FF0000971
:1043D000B2464FF00308FBF7B5FE0068C05D202829
:1043E0004ED05046564505D9A6EB0A010A22FFF7E2
:1043F0004CFB81462646B9F1000F0BD10C98017891
:10440000632901D043290AD121784278914206D00C
:104410004FF0010906EB0904AC4209D979E0417873
:1044200029B12A1B3046FBF7C5FE040000D12C46FB
:10443000AC426ED80C984FF001080BF1010B0178DB
:10444000A4EB0609632912D008DC43290FD04529C3
:1044500027D0472925D0532932D112E0652920D011
:1044600066291ED067291CD0732929D109E000983C
:10447000B9F1000F80C8009021D00FB330783870A8
:104480003EE0009880C80090B9F1000017D0BFB19D
:10449000024631463846FBF762FE002007F8090065
:1044A0002EE0009880C80090B9F1000007D03FB11D
:1044B00001463046FFF7D3FAC7E9000120E0FFB913
:1044C000009880C80090DFB1B9F1000018D06F29C2
:1044D00010D006DC58290BD0642907D0692918D1DF
:1044E00004E0752902D0782913D101E00A2202E004
:1044F000102200E0082201463046FFF7C6FA386075
:104500000C98401C0C900C9E377817B1AC42FFF40D
:1045100047AF5846BDE8F80F5DF814FB7221016003
:1045200000210122C0E90112C16001614161816184
:1045300070470000034A1268002A02D0002900D008
:10454000104770471C00002010B504464FF4B471AA
:10455000FBF71EFE201DFFF7E1FF00202062012077
:10456000606210BD0148401EFDD1704790D003002D
:104570001CB502238DF804100A2100918DF8052046
:10458000014601AA0148FDF72BF81CBD4C02002092
:104590002DE9F84380461C4616460F46581CFFF787
:1045A00041F905460770012005E0311811F8011C9A
:1045B0002954401CC0B2A042F7D90A2000902346DB
:1045C0002A4641460348FDF70BF82846BDE8F84364
:1045D000FFF7DAB84C02002000B583B00A4600218C
:1045E000CDE9001101466846FCF7A7F8DDE90001B6
:1045F00003B000BD70470000000001020304010287
:104600000304060708090000000000000000000085
:10461000000000000000000000000010001000106A
:104620000010001000100000001000000000002822
:10463000002800280000000000000000000000002A
:10464000000000240024007C00240048007C004876
:1046500000480000000000380054005000380014EA
:10466000005400540038001000000020005400588E
:104670000030002800540014000800000000001062
:1046800000280028001000340048004800340000D2
:1046900000000010001000100000000000000000EA
:1046A0000000000000000008001000200020002092
:1046B000002000200020001000080020001000084A
:1046C0000008000800080008000800100020001082
:1046D000003800100028000000000000000000006A
:1046E00000000000000000100010007C001000100E
:1046F00000000000000000000000000000000000BA
:104700000000000000100010001000000000000079
:104710000000000000380000000000000000000061
:104720000000000000000000000000000010000079
:104730000000000800080010001000100010002009
:1047400000200000000000380044004400540044F1
:104750000044004400380000000000100030005009
:1047600000100010001000100010000000000038C1
:10477000004400440004000800100020007C0000F9
:104780000000003800440004001800040004004445
:104790000038000000000008001800280028004829
:1047A000007C0008000800000000007C0040004081
:1047B00000780004000400440038000000000038C5
:1047C00000440040007800440044004400380000E9
:1047D0000000007C000400080010001000200020F1
:1047E000002000000000003800440044003800446D
:1047F0000044004400380000000000380044004439
:104800000044003C000400440038000000000000A8
:104810000000001000000000000000000010000078
:104820000000000000000000001000000000000078
:1048300000100010001000000000000C00300040CC
:104840000030000C0000000000000000000000002C
:10485000007C0000007C0000000000000000000060
:104860000000006000180004001800600000000054
:104870000000003800440004000800100010000090
:1048800000100000000000380044004C0054005CA0
:104890000040004000380000000000100028002800
:1048A00000280028007C004400440000000000783C
:1048B00000440044007800440044004400780000B4
:1048C0000000003800440040004000400040004428
:1048D000003800000000007000480044004400441C
:1048E00000440048007000000000007C00400040D0
:1048F000007C004000400040007C00000000007C84
:1049000000400040007800400040004000400000AF
:1049100000000038004400400040005C00440044B7
:10492000003800000000004400440044007C0044C3
:104930000044004400440000000000380010001053
:1049400000100010001000100038000000000004EB
:1049500000040004000400040004004400380000C7
:10496000000000440048005000600050004800482B
:1049700000440000000000400040004000400040B3
:1049800000400040007C000000000044006C006C0F
:10499000005400440044004400440000000000446F
:1049A0000064006400540054004C004C00440000BB
:1049B0000000003800440044004400440044004427
:1049C00000380000000000780044004400440078F3
:1049D0000040004000400000000000380044004457
:1049E00000440044004400540038000400000078F3
:1049F000004400440044007800480048004400009F
:104A0000000000380044004000300008000400446A
:104A1000003800000000007C0010001000100010A2
:104A2000001000100010000000000044004400448A
:104A300000440044004400440038000000000044EA
:104A40000044004400280028002800100010000046
:104A5000000000440044005400540054006C00283E
:104A6000002800000000004400280028001000106A
:104A700000280028004400000000004400440028F2
:104A80000028001000100010001000000000007C42
:104A9000000400080010001000200040007C00000E
:104AA000000000180010001000100010001000108E
:104AB000001000100018002000200010001000104E
:104AC0000010000800080000000000300010001076
:104AD0000010001000100010001000100030001036
:104AE0000028002800440000000000000000000032
:104AF00000000000000000000000000000000000B6
:104B00000000000000FE0020001000000000000077
:104B1000000000000000000000000000000000385D
:104B20000044003C0044004C003400000000004001
:104B30000040005800640044004400640058000035
:104B40000000000000000038004400400040004425
:104B5000003800000000000400040034004C004451
:104B60000044004C00340000000000000000003849
:104B70000044007C00400044003800000000000CAD
:104B80000010007C00100010001000100010000049
:104B90000000000000000034004C00440044004CC1
:104BA00000340004007800400040005800640044D5
:104BB00000440044004400000000001000000070A9
:104BC0000010001000100010001000000000001085
:104BD0000000007000100010001000100010001005
:104BE00000E00040004000480050006000500048D5
:104BF00000440000000000700010001000100010C1
:104C000000100010001000000000000000000078FC
:104C100000540054005400540054000000000000F0
:104C200000000058006400440044004400440000B8
:104C3000000000000000003800440044004400442C
:104C4000003800000000000000000058006400442C
:104C500000440064005800400040000000000034A0
:104C6000004C00440044004C0034000400040000E8
:104C70000000005800640040004000400040000078
:104C8000000000000000003800440030000800442C
:104C900000380000000000200020007800200020E4
:104CA0000020002000180000000000000000004468
:104CB000004400440044004C0034000000000000A8
:104CC00000000044004400280028002800100000D4
:104CD000000000000000005400540054006C002844
:104CE0000028000000000000000000440028001020
:104CF00000100028004400000000000000000044F4
:104D0000004400280028001000100010006000007F
:104D10000000007C0008001000200040007C000023
:104D200000000018001000100010002000200010EB
:104D300000100010001800100010001000100010EB
:104D400000100010001000100010003000100010C3
:104D500000100008000800100010001000300000D3
:104D6000000000000074004C000000000000000083
:104D700000000040404040404040404041414141EF
:104D80004140404040404040404040404040404022
:104D90004040400502020202020202020202020236
:104DA00002020220202020202020202020020202B7
:104DB000020202029090909090901010101010102B
:104DC00010101010101010101010101010100202FF
:104DD000020202028888888888880808080808086B
:104DE000080808080808080808080808080802024F
:104DF00002024000734D00082447504753562C25AB
:104E0000642C25642C25642C25642C25642C2564B5
:104E10002C25642C25642C25642C25642C25642CDD
:104E200025642C25642C25642C25642C25642C25D4
:104E3000642C25642C25642A000000004750474755
:104E40004100000047504753410000004750524D79
:104E50004300000047505654470000004750475356
:104E600056000000844E0008000000204C000000A6
:104E7000FC2D0008D04E00084C0000201427000034
:104E80000C2E000800A24A040000000000000000F0
:104E9000070A0000064600080000000000000000AD
:104EA0000000000000000000000400003C4E00086C
:104EB000444E00085C4E00084C4E0008544E00085A
:104EC00000000000000000000000000000000000E2
:04000005080000ED02
:00000001FF
